{
  "_format": "hh-sol-artifact-1",
  "contractName": "NFTMarketplace",
  "sourceName": "contracts/NFTMarket.sol",
  "abi": [
    {
      "inputs": [],
      "stateMutability": "nonpayable",
      "type": "constructor"
    },
    {
      "inputs": [],
      "name": "IncorrectListingPrice",
      "type": "error"
    },
    {
      "inputs": [],
      "name": "IncorrectPurchasePrice",
      "type": "error"
    },
    {
      "inputs": [],
      "name": "InvalidItemId",
      "type": "error"
    },
    {
      "inputs": [],
      "name": "InvalidPrice",
      "type": "error"
    },
    {
      "inputs": [],
      "name": "ItemNotForSale",
      "type": "error"
    },
    {
      "inputs": [],
      "name": "OnlyOwner",
      "type": "error"
    },
    {
      "inputs": [],
      "name": "ReentrancyGuardReentrantCall",
      "type": "error"
    },
    {
      "anonymous": false,
      "inputs": [
        {
          "indexed": true,
          "internalType": "uint256",
          "name": "itemId",
          "type": "uint256"
        },
        {
          "indexed": true,
          "internalType": "address",
          "name": "nftContract",
          "type": "address"
        },
        {
          "indexed": true,
          "internalType": "uint256",
          "name": "tokenId",
          "type": "uint256"
        },
        {
          "indexed": false,
          "internalType": "address",
          "name": "seller",
          "type": "address"
        },
        {
          "indexed": false,
          "internalType": "address",
          "name": "owner",
          "type": "address"
        },
        {
          "indexed": false,
          "internalType": "uint256",
          "name": "price",
          "type": "uint256"
        },
        {
          "indexed": false,
          "internalType": "bool",
          "name": "sold",
          "type": "bool"
        }
      ],
      "name": "MarketItemCreated",
      "type": "event"
    },
    {
      "anonymous": false,
      "inputs": [
        {
          "indexed": true,
          "internalType": "uint256",
          "name": "itemId",
          "type": "uint256"
        },
        {
          "indexed": true,
          "internalType": "address",
          "name": "nftContract",
          "type": "address"
        },
        {
          "indexed": true,
          "internalType": "uint256",
          "name": "tokenId",
          "type": "uint256"
        },
        {
          "indexed": false,
          "internalType": "address",
          "name": "seller",
          "type": "address"
        },
        {
          "indexed": false,
          "internalType": "address",
          "name": "buyer",
          "type": "address"
        },
        {
          "indexed": false,
          "internalType": "uint256",
          "name": "price",
          "type": "uint256"
        }
      ],
      "name": "MarketItemSold",
      "type": "event"
    },
    {
      "inputs": [
        {
          "internalType": "address",
          "name": "_nftContract",
          "type": "address"
        },
        {
          "internalType": "uint256",
          "name": "_tokenId",
          "type": "uint256"
        },
        {
          "internalType": "uint256",
          "name": "_price",
          "type": "uint256"
        }
      ],
      "name": "createMarketItem",
      "outputs": [],
      "stateMutability": "payable",
      "type": "function"
    },
    {
      "inputs": [
        {
          "internalType": "address",
          "name": "_nftContract",
          "type": "address"
        },
        {
          "internalType": "uint256",
          "name": "_itemId",
          "type": "uint256"
        }
      ],
      "name": "createMarketSale",
      "outputs": [],
      "stateMutability": "payable",
      "type": "function"
    },
    {
      "inputs": [],
      "name": "fetchItemsListed",
      "outputs": [
        {
          "components": [
            {
              "internalType": "uint256",
              "name": "itemId",
              "type": "uint256"
            },
            {
              "internalType": "address",
              "name": "nftContract",
              "type": "address"
            },
            {
              "internalType": "uint256",
              "name": "tokenId",
              "type": "uint256"
            },
            {
              "internalType": "address payable",
              "name": "seller",
              "type": "address"
            },
            {
              "internalType": "address payable",
              "name": "owner",
              "type": "address"
            },
            {
              "internalType": "uint256",
              "name": "price",
              "type": "uint256"
            },
            {
              "internalType": "bool",
              "name": "sold",
              "type": "bool"
            }
          ],
          "internalType": "struct NFTMarketplace.MarketItem[]",
          "name": "",
          "type": "tuple[]"
        }
      ],
      "stateMutability": "view",
      "type": "function"
    },
    {
      "inputs": [],
      "name": "fetchMarketItems",
      "outputs": [
        {
          "components": [
            {
              "internalType": "uint256",
              "name": "itemId",
              "type": "uint256"
            },
            {
              "internalType": "address",
              "name": "nftContract",
              "type": "address"
            },
            {
              "internalType": "uint256",
              "name": "tokenId",
              "type": "uint256"
            },
            {
              "internalType": "address payable",
              "name": "seller",
              "type": "address"
            },
            {
              "internalType": "address payable",
              "name": "owner",
              "type": "address"
            },
            {
              "internalType": "uint256",
              "name": "price",
              "type": "uint256"
            },
            {
              "internalType": "bool",
              "name": "sold",
              "type": "bool"
            }
          ],
          "internalType": "struct NFTMarketplace.MarketItem[]",
          "name": "",
          "type": "tuple[]"
        }
      ],
      "stateMutability": "view",
      "type": "function"
    },
    {
      "inputs": [],
      "name": "fetchMyNFTs",
      "outputs": [
        {
          "components": [
            {
              "internalType": "uint256",
              "name": "itemId",
              "type": "uint256"
            },
            {
              "internalType": "address",
              "name": "nftContract",
              "type": "address"
            },
            {
              "internalType": "uint256",
              "name": "tokenId",
              "type": "uint256"
            },
            {
              "internalType": "address payable",
              "name": "seller",
              "type": "address"
            },
            {
              "internalType": "address payable",
              "name": "owner",
              "type": "address"
            },
            {
              "internalType": "uint256",
              "name": "price",
              "type": "uint256"
            },
            {
              "internalType": "bool",
              "name": "sold",
              "type": "bool"
            }
          ],
          "internalType": "struct NFTMarketplace.MarketItem[]",
          "name": "",
          "type": "tuple[]"
        }
      ],
      "stateMutability": "view",
      "type": "function"
    },
    {
      "inputs": [],
      "name": "getListingPrice",
      "outputs": [
        {
          "internalType": "uint256",
          "name": "",
          "type": "uint256"
        }
      ],
      "stateMutability": "view",
      "type": "function"
    },
    {
      "inputs": [],
      "name": "getMyListedItemsCount",
      "outputs": [
        {
          "internalType": "uint256",
          "name": "",
          "type": "uint256"
        }
      ],
      "stateMutability": "view",
      "type": "function"
    },
    {
      "inputs": [],
      "name": "getMyNFTsCount",
      "outputs": [
        {
          "internalType": "uint256",
          "name": "",
          "type": "uint256"
        }
      ],
      "stateMutability": "view",
      "type": "function"
    },
    {
      "inputs": [],
      "name": "getSoldItemsCount",
      "outputs": [
        {
          "internalType": "uint256",
          "name": "",
          "type": "uint256"
        }
      ],
      "stateMutability": "view",
      "type": "function"
    },
    {
      "inputs": [],
      "name": "getTotalItemsCount",
      "outputs": [
        {
          "internalType": "uint256",
          "name": "",
          "type": "uint256"
        }
      ],
      "stateMutability": "view",
      "type": "function"
    },
    {
      "inputs": [],
      "name": "getUnsoldItemsCount",
      "outputs": [
        {
          "internalType": "uint256",
          "name": "",
          "type": "uint256"
        }
      ],
      "stateMutability": "view",
      "type": "function"
    },
    {
      "inputs": [],
      "name": "listingPrice",
      "outputs": [
        {
          "internalType": "uint256",
          "name": "",
          "type": "uint256"
        }
      ],
      "stateMutability": "view",
      "type": "function"
    },
    {
      "inputs": [],
      "name": "owner",
      "outputs": [
        {
          "internalType": "address payable",
          "name": "",
          "type": "address"
        }
      ],
      "stateMutability": "view",
      "type": "function"
    },
    {
      "inputs": [
        {
          "internalType": "uint256",
          "name": "_listingPrice",
          "type": "uint256"
        }
      ],
      "name": "updateListingPrice",
      "outputs": [],
      "stateMutability": "nonpayable",
      "type": "function"
    }
  ],
  "bytecode": "0x60806040526658d15e17628000600355348015601a57600080fd5b50600160008190555033600460006101000a81548173ffffffffffffffffffffffffffffffffffffffff021916908373ffffffffffffffffffffffffffffffffffffffff1602179055506000600181905550611bff8061007b6000396000f3fe6080604052600436106100dd5760003560e01c80638da5cb5b1161007f578063b13b5c4c11610059578063b13b5c4c1461027f578063c23b139e146102aa578063c78f19f9146102c6578063e91b272a146102f1576100dd565b80638da5cb5b14610200578063ae5870511461022b578063ae677aa314610256576100dd565b80634100ed7a116100bb5780634100ed7a1461016357806345f8fa801461018e5780634c91f36d146101b957806358eb2df5146101e4576100dd565b80630f08efe0146100e257806312e855851461010d578063202e374014610138575b600080fd5b3480156100ee57600080fd5b506100f761031c565b60405161010491906117fd565b60405180910390f35b34801561011957600080fd5b506101226105dc565b60405161012f919061182e565b60405180910390f35b34801561014457600080fd5b5061014d6105e6565b60405161015a91906117fd565b60405180910390f35b34801561016f57600080fd5b506101786108ff565b604051610185919061182e565b60405180910390f35b34801561019a57600080fd5b506101a3610909565b6040516101b091906117fd565b60405180910390f35b3480156101c557600080fd5b506101ce610c7e565b6040516101db919061182e565b60405180910390f35b6101fe60048036038101906101f991906118a6565b610d29565b005b34801561020c57600080fd5b5061021561103a565b6040516102229190611908565b60405180910390f35b34801561023757600080fd5b50610240611060565b60405161024d919061182e565b60405180910390f35b34801561026257600080fd5b5061027d60048036038101906102789190611923565b611139565b005b34801561028b57600080fd5b506102946111ca565b6040516102a1919061182e565b60405180910390f35b6102c460048036038101906102bf9190611950565b6111d4565b005b3480156102d257600080fd5b506102db61153c565b6040516102e8919061182e565b60405180910390f35b3480156102fd57600080fd5b50610306611542565b604051610313919061182e565b60405180910390f35b606060006001549050600060025460015461033791906119bf565b90506000808267ffffffffffffffff811115610356576103556119f3565b5b60405190808252806020026020018201604052801561038f57816020015b61037c6115a9565b8152602001906001900390816103745790505b5090506000600190505b8481116105d157600073ffffffffffffffffffffffffffffffffffffffff166005600083815260200190815260200160002060040160009054906101000a900473ffffffffffffffffffffffffffffffffffffffff1673ffffffffffffffffffffffffffffffffffffffff1614801561043357506005600082815260200190815260200160002060060160009054906101000a900460ff16155b156105be57600560008281526020019081526020016000206040518060e0016040529081600082015481526020016001820160009054906101000a900473ffffffffffffffffffffffffffffffffffffffff1673ffffffffffffffffffffffffffffffffffffffff1673ffffffffffffffffffffffffffffffffffffffff168152602001600282015481526020016003820160009054906101000a900473ffffffffffffffffffffffffffffffffffffffff1673ffffffffffffffffffffffffffffffffffffffff1673ffffffffffffffffffffffffffffffffffffffff1681526020016004820160009054906101000a900473ffffffffffffffffffffffffffffffffffffffff1673ffffffffffffffffffffffffffffffffffffffff1673ffffffffffffffffffffffffffffffffffffffff168152602001600582015481526020016006820160009054906101000a900460ff1615151515815250508284815181106105a4576105a3611a22565b5b602002602001018190525082806105ba90611a51565b9350505b80806105c990611a51565b915050610399565b508094505050505090565b6000600354905090565b6060600060015490506000806000600190505b83811161068b573373ffffffffffffffffffffffffffffffffffffffff166005600083815260200190815260200160002060040160009054906101000a900473ffffffffffffffffffffffffffffffffffffffff1673ffffffffffffffffffffffffffffffffffffffff160361067857828061067490611a51565b9350505b808061068390611a51565b9150506105f9565b5060008267ffffffffffffffff8111156106a8576106a76119f3565b5b6040519080825280602002602001820160405280156106e157816020015b6106ce6115a9565b8152602001906001900390816106c65790505b5090506000600190505b8481116108f4573373ffffffffffffffffffffffffffffffffffffffff166005600083815260200190815260200160002060040160009054906101000a900473ffffffffffffffffffffffffffffffffffffffff1673ffffffffffffffffffffffffffffffffffffffff16036108e157600560008281526020019081526020016000206040518060e0016040529081600082015481526020016001820160009054906101000a900473ffffffffffffffffffffffffffffffffffffffff1673ffffffffffffffffffffffffffffffffffffffff1673ffffffffffffffffffffffffffffffffffffffff168152602001600282015481526020016003820160009054906101000a900473ffffffffffffffffffffffffffffffffffffffff1673ffffffffffffffffffffffffffffffffffffffff1673ffffffffffffffffffffffffffffffffffffffff1681526020016004820160009054906101000a900473ffffffffffffffffffffffffffffffffffffffff1673ffffffffffffffffffffffffffffffffffffffff1673ffffffffffffffffffffffffffffffffffffffff168152602001600582015481526020016006820160009054906101000a900460ff1615151515815250508284815181106108c7576108c6611a22565b5b602002602001018190525082806108dd90611a51565b9350505b80806108ec90611a51565b9150506106eb565b508094505050505090565b6000600154905090565b6060600060015490506000806000600190505b8381116109dc573373ffffffffffffffffffffffffffffffffffffffff166005600083815260200190815260200160002060030160009054906101000a900473ffffffffffffffffffffffffffffffffffffffff1673ffffffffffffffffffffffffffffffffffffffff161480156109b557506005600082815260200190815260200160002060060160009054906101000a900460ff16155b156109c95782806109c590611a51565b9350505b80806109d490611a51565b91505061091c565b5060008267ffffffffffffffff8111156109f9576109f86119f3565b5b604051908082528060200260200182016040528015610a3257816020015b610a1f6115a9565b815260200190600190039081610a175790505b5090506000600190505b848111610c73573373ffffffffffffffffffffffffffffffffffffffff166005600083815260200190815260200160002060030160009054906101000a900473ffffffffffffffffffffffffffffffffffffffff1673ffffffffffffffffffffffffffffffffffffffff16148015610ad557506005600082815260200190815260200160002060060160009054906101000a900460ff16155b15610c6057600560008281526020019081526020016000206040518060e0016040529081600082015481526020016001820160009054906101000a900473ffffffffffffffffffffffffffffffffffffffff1673ffffffffffffffffffffffffffffffffffffffff1673ffffffffffffffffffffffffffffffffffffffff168152602001600282015481526020016003820160009054906101000a900473ffffffffffffffffffffffffffffffffffffffff1673ffffffffffffffffffffffffffffffffffffffff1673ffffffffffffffffffffffffffffffffffffffff1681526020016004820160009054906101000a900473ffffffffffffffffffffffffffffffffffffffff1673ffffffffffffffffffffffffffffffffffffffff1673ffffffffffffffffffffffffffffffffffffffff168152602001600582015481526020016006820160009054906101000a900460ff161515151581525050828481518110610c4657610c45611a22565b5b60200260200101819052508280610c5c90611a51565b9350505b8080610c6b90611a51565b915050610a3c565b508094505050505090565b6000806001549050600080600190505b828111610d20573373ffffffffffffffffffffffffffffffffffffffff166005600083815260200190815260200160002060040160009054906101000a900473ffffffffffffffffffffffffffffffffffffffff1673ffffffffffffffffffffffffffffffffffffffff1603610d0d578180610d0990611a51565b9250505b8080610d1890611a51565b915050610c8e565b50809250505090565b610d31611559565b60008111610d6a576040517ebfc92100000000000000000000000000000000000000000000000000000000815260040160405180910390fd5b6003543414610da5576040517fe38add7d00000000000000000000000000000000000000000000000000000000815260040160405180910390fd5b60016000815480929190610db890611a51565b9190505550600060015490506040518060e001604052808281526020018573ffffffffffffffffffffffffffffffffffffffff1681526020018481526020013373ffffffffffffffffffffffffffffffffffffffff168152602001600073ffffffffffffffffffffffffffffffffffffffff16815260200183815260200160001515815250600560008381526020019081526020016000206000820151816000015560208201518160010160006101000a81548173ffffffffffffffffffffffffffffffffffffffff021916908373ffffffffffffffffffffffffffffffffffffffff1602179055506040820151816002015560608201518160030160006101000a81548173ffffffffffffffffffffffffffffffffffffffff021916908373ffffffffffffffffffffffffffffffffffffffff16021790555060808201518160040160006101000a81548173ffffffffffffffffffffffffffffffffffffffff021916908373ffffffffffffffffffffffffffffffffffffffff16021790555060a0820151816005015560c08201518160060160006101000a81548160ff0219169083151502179055509050508373ffffffffffffffffffffffffffffffffffffffff166323b872dd3330866040518463ffffffff1660e01b8152600401610fa393929190611aa8565b600060405180830381600087803b158015610fbd57600080fd5b505af1158015610fd1573d6000803e3d6000fd5b50505050828473ffffffffffffffffffffffffffffffffffffffff16827f045dfa01dcba2b36aba1d3dc4a874f4b0c5d2fbeb8d2c4b34a7d88c8d8f929d133308760006040516110249493929190611aee565b60405180910390a45061103561159f565b505050565b600460009054906101000a900473ffffffffffffffffffffffffffffffffffffffff1681565b6000806001549050600080600190505b828111611130573373ffffffffffffffffffffffffffffffffffffffff166005600083815260200190815260200160002060030160009054906101000a900473ffffffffffffffffffffffffffffffffffffffff1673ffffffffffffffffffffffffffffffffffffffff1614801561110957506005600082815260200190815260200160002060060160009054906101000a900460ff16155b1561111d57818061111990611a51565b9250505b808061112890611a51565b915050611070565b50809250505090565b3373ffffffffffffffffffffffffffffffffffffffff16600460009054906101000a900473ffffffffffffffffffffffffffffffffffffffff1673ffffffffffffffffffffffffffffffffffffffff16146111c0576040517f5fc483c500000000000000000000000000000000000000000000000000000000815260040160405180910390fd5b8060038190555050565b6000600254905090565b6111dc611559565b60008114806111ec575060015481115b15611223576040517fa2ade61f00000000000000000000000000000000000000000000000000000000815260040160405180910390fd5b60006005600083815260200190815260200160002090508060060160009054906101000a900460ff1615611283576040517f796526bd00000000000000000000000000000000000000000000000000000000815260040160405180910390fd5b806005015434146112c0576040517f9d23231b00000000000000000000000000000000000000000000000000000000815260040160405180910390fd5b60008160050154905060008260020154905060008360030160009054906101000a900473ffffffffffffffffffffffffffffffffffffffff169050338460040160006101000a81548173ffffffffffffffffffffffffffffffffffffffff021916908373ffffffffffffffffffffffffffffffffffffffff16021790555060018460060160006101000a81548160ff02191690831515021790555060008460030160006101000a81548173ffffffffffffffffffffffffffffffffffffffff021916908373ffffffffffffffffffffffffffffffffffffffff160217905550600260008154809291906113b290611a51565b91905055508573ffffffffffffffffffffffffffffffffffffffff166323b872dd3033856040518463ffffffff1660e01b81526004016113f493929190611aa8565b600060405180830381600087803b15801561140e57600080fd5b505af1158015611422573d6000803e3d6000fd5b50505050600460009054906101000a900473ffffffffffffffffffffffffffffffffffffffff1673ffffffffffffffffffffffffffffffffffffffff166108fc6003549081150290604051600060405180830381858888f19350505050158015611490573d6000803e3d6000fd5b508073ffffffffffffffffffffffffffffffffffffffff166108fc849081150290604051600060405180830381858888f193505050501580156114d7573d6000803e3d6000fd5b50818673ffffffffffffffffffffffffffffffffffffffff16867f6a5f9d2b6ff1f375ebe095556dc91e68fce80a6187d7527cce81c3ab02726c9c84338860405161152493929190611b92565b60405180910390a45050505061153861159f565b5050565b60035481565b600060025460015461155491906119bf565b905090565b600260005403611595576040517f3ee5aeb500000000000000000000000000000000000000000000000000000000815260040160405180910390fd5b6002600081905550565b6001600081905550565b6040518060e0016040528060008152602001600073ffffffffffffffffffffffffffffffffffffffff16815260200160008152602001600073ffffffffffffffffffffffffffffffffffffffff168152602001600073ffffffffffffffffffffffffffffffffffffffff168152602001600081526020016000151581525090565b600081519050919050565b600082825260208201905092915050565b6000819050602082019050919050565b6000819050919050565b61166981611656565b82525050565b600073ffffffffffffffffffffffffffffffffffffffff82169050919050565b600061169a8261166f565b9050919050565b6116aa8161168f565b82525050565b60006116bb8261166f565b9050919050565b6116cb816116b0565b82525050565b60008115159050919050565b6116e6816116d1565b82525050565b60e0820160008201516117026000850182611660565b50602082015161171560208501826116a1565b5060408201516117286040850182611660565b50606082015161173b60608501826116c2565b50608082015161174e60808501826116c2565b5060a082015161176160a0850182611660565b5060c082015161177460c08501826116dd565b50505050565b600061178683836116ec565b60e08301905092915050565b6000602082019050919050565b60006117aa8261162a565b6117b48185611635565b93506117bf83611646565b8060005b838110156117f05781516117d7888261177a565b97506117e283611792565b9250506001810190506117c3565b5085935050505092915050565b60006020820190508181036000830152611817818461179f565b905092915050565b61182881611656565b82525050565b6000602082019050611843600083018461181f565b92915050565b600080fd5b6118578161168f565b811461186257600080fd5b50565b6000813590506118748161184e565b92915050565b61188381611656565b811461188e57600080fd5b50565b6000813590506118a08161187a565b92915050565b6000806000606084860312156118bf576118be611849565b5b60006118cd86828701611865565b93505060206118de86828701611891565b92505060406118ef86828701611891565b9150509250925092565b611902816116b0565b82525050565b600060208201905061191d60008301846118f9565b92915050565b60006020828403121561193957611938611849565b5b600061194784828501611891565b91505092915050565b6000806040838503121561196757611966611849565b5b600061197585828601611865565b925050602061198685828601611891565b9150509250929050565b7f4e487b7100000000000000000000000000000000000000000000000000000000600052601160045260246000fd5b60006119ca82611656565b91506119d583611656565b92508282039050818111156119ed576119ec611990565b5b92915050565b7f4e487b7100000000000000000000000000000000000000000000000000000000600052604160045260246000fd5b7f4e487b7100000000000000000000000000000000000000000000000000000000600052603260045260246000fd5b6000611a5c82611656565b91507fffffffffffffffffffffffffffffffffffffffffffffffffffffffffffffffff8203611a8e57611a8d611990565b5b600182019050919050565b611aa28161168f565b82525050565b6000606082019050611abd6000830186611a99565b611aca6020830185611a99565b611ad7604083018461181f565b949350505050565b611ae8816116d1565b82525050565b6000608082019050611b036000830187611a99565b611b106020830186611a99565b611b1d604083018561181f565b611b2a6060830184611adf565b95945050505050565b6000819050919050565b6000611b58611b53611b4e8461166f565b611b33565b61166f565b9050919050565b6000611b6a82611b3d565b9050919050565b6000611b7c82611b5f565b9050919050565b611b8c81611b71565b82525050565b6000606082019050611ba76000830186611b83565b611bb46020830185611a99565b611bc1604083018461181f565b94935050505056fea2646970667358221220b67765224b09a38a5f2049ed03413ac1a665f22cc7210a8bf5ac835291b32a4a64736f6c634300081c0033",
  "linkReferences": {},
  "deployedLinkReferences": {}
}