{
  "_format": "hh-sol-artifact-1",
  "contractName": "NFT",
  "sourceName": "contracts/NFT.sol",
  "abi": [
    {
      "inputs": [
        {
          "internalType": "address",
          "name": "marketPlace",
          "type": "address"
        }
      ],
      "stateMutability": "nonpayable",
      "type": "constructor"
    },
    {
      "inputs": [
        {
          "internalType": "address",
          "name": "sender",
          "type": "address"
        },
        {
          "internalType": "uint256",
          "name": "tokenId",
          "type": "uint256"
        },
        {
          "internalType": "address",
          "name": "owner",
          "type": "address"
        }
      ],
      "name": "ERC721IncorrectOwner",
      "type": "error"
    },
    {
      "inputs": [
        {
          "internalType": "address",
          "name": "operator",
          "type": "address"
        },
        {
          "internalType": "uint256",
          "name": "tokenId",
          "type": "uint256"
        }
      ],
      "name": "ERC721InsufficientApproval",
      "type": "error"
    },
    {
      "inputs": [
        {
          "internalType": "address",
          "name": "approver",
          "type": "address"
        }
      ],
      "name": "ERC721InvalidApprover",
      "type": "error"
    },
    {
      "inputs": [
        {
          "internalType": "address",
          "name": "operator",
          "type": "address"
        }
      ],
      "name": "ERC721InvalidOperator",
      "type": "error"
    },
    {
      "inputs": [
        {
          "internalType": "address",
          "name": "owner",
          "type": "address"
        }
      ],
      "name": "ERC721InvalidOwner",
      "type": "error"
    },
    {
      "inputs": [
        {
          "internalType": "address",
          "name": "receiver",
          "type": "address"
        }
      ],
      "name": "ERC721InvalidReceiver",
      "type": "error"
    },
    {
      "inputs": [
        {
          "internalType": "address",
          "name": "sender",
          "type": "address"
        }
      ],
      "name": "ERC721InvalidSender",
      "type": "error"
    },
    {
      "inputs": [
        {
          "internalType": "uint256",
          "name": "tokenId",
          "type": "uint256"
        }
      ],
      "name": "ERC721NonexistentToken",
      "type": "error"
    },
    {
      "anonymous": false,
      "inputs": [
        {
          "indexed": true,
          "internalType": "address",
          "name": "owner",
          "type": "address"
        },
        {
          "indexed": true,
          "internalType": "address",
          "name": "approved",
          "type": "address"
        },
        {
          "indexed": true,
          "internalType": "uint256",
          "name": "tokenId",
          "type": "uint256"
        }
      ],
      "name": "Approval",
      "type": "event"
    },
    {
      "anonymous": false,
      "inputs": [
        {
          "indexed": true,
          "internalType": "address",
          "name": "owner",
          "type": "address"
        },
        {
          "indexed": true,
          "internalType": "address",
          "name": "operator",
          "type": "address"
        },
        {
          "indexed": false,
          "internalType": "bool",
          "name": "approved",
          "type": "bool"
        }
      ],
      "name": "ApprovalForAll",
      "type": "event"
    },
    {
      "anonymous": false,
      "inputs": [
        {
          "indexed": false,
          "internalType": "uint256",
          "name": "_fromTokenId",
          "type": "uint256"
        },
        {
          "indexed": false,
          "internalType": "uint256",
          "name": "_toTokenId",
          "type": "uint256"
        }
      ],
      "name": "BatchMetadataUpdate",
      "type": "event"
    },
    {
      "anonymous": false,
      "inputs": [
        {
          "indexed": true,
          "internalType": "uint256",
          "name": "tokenId",
          "type": "uint256"
        },
        {
          "indexed": true,
          "internalType": "address",
          "name": "minter",
          "type": "address"
        }
      ],
      "name": "MarketItemCreated",
      "type": "event"
    },
    {
      "anonymous": false,
      "inputs": [
        {
          "indexed": false,
          "internalType": "uint256",
          "name": "_tokenId",
          "type": "uint256"
        }
      ],
      "name": "MetadataUpdate",
      "type": "event"
    },
    {
      "anonymous": false,
      "inputs": [
        {
          "indexed": true,
          "internalType": "address",
          "name": "from",
          "type": "address"
        },
        {
          "indexed": true,
          "internalType": "address",
          "name": "to",
          "type": "address"
        },
        {
          "indexed": true,
          "internalType": "uint256",
          "name": "tokenId",
          "type": "uint256"
        }
      ],
      "name": "Transfer",
      "type": "event"
    },
    {
      "inputs": [
        {
          "internalType": "address",
          "name": "to",
          "type": "address"
        },
        {
          "internalType": "uint256",
          "name": "tokenId",
          "type": "uint256"
        }
      ],
      "name": "approve",
      "outputs": [],
      "stateMutability": "nonpayable",
      "type": "function"
    },
    {
      "inputs": [
        {
          "internalType": "address",
          "name": "owner",
          "type": "address"
        }
      ],
      "name": "balanceOf",
      "outputs": [
        {
          "internalType": "uint256",
          "name": "",
          "type": "uint256"
        }
      ],
      "stateMutability": "view",
      "type": "function"
    },
    {
      "inputs": [
        {
          "internalType": "string",
          "name": "tokenURI",
          "type": "string"
        }
      ],
      "name": "createToken",
      "outputs": [
        {
          "internalType": "uint256",
          "name": "",
          "type": "uint256"
        }
      ],
      "stateMutability": "nonpayable",
      "type": "function"
    },
    {
      "inputs": [
        {
          "internalType": "uint256",
          "name": "tokenId",
          "type": "uint256"
        }
      ],
      "name": "getApproved",
      "outputs": [
        {
          "internalType": "address",
          "name": "",
          "type": "address"
        }
      ],
      "stateMutability": "view",
      "type": "function"
    },
    {
      "inputs": [],
      "name": "getContractAddress",
      "outputs": [
        {
          "internalType": "address",
          "name": "",
          "type": "address"
        }
      ],
      "stateMutability": "view",
      "type": "function"
    },
    {
      "inputs": [],
      "name": "getTokenId",
      "outputs": [
        {
          "internalType": "uint256",
          "name": "",
          "type": "uint256"
        }
      ],
      "stateMutability": "view",
      "type": "function"
    },
    {
      "inputs": [
        {
          "internalType": "address",
          "name": "owner",
          "type": "address"
        },
        {
          "internalType": "address",
          "name": "operator",
          "type": "address"
        }
      ],
      "name": "isApprovedForAll",
      "outputs": [
        {
          "internalType": "bool",
          "name": "",
          "type": "bool"
        }
      ],
      "stateMutability": "view",
      "type": "function"
    },
    {
      "inputs": [],
      "name": "name",
      "outputs": [
        {
          "internalType": "string",
          "name": "",
          "type": "string"
        }
      ],
      "stateMutability": "view",
      "type": "function"
    },
    {
      "inputs": [
        {
          "internalType": "uint256",
          "name": "tokenId",
          "type": "uint256"
        }
      ],
      "name": "ownerOf",
      "outputs": [
        {
          "internalType": "address",
          "name": "",
          "type": "address"
        }
      ],
      "stateMutability": "view",
      "type": "function"
    },
    {
      "inputs": [
        {
          "internalType": "address",
          "name": "from",
          "type": "address"
        },
        {
          "internalType": "address",
          "name": "to",
          "type": "address"
        },
        {
          "internalType": "uint256",
          "name": "tokenId",
          "type": "uint256"
        }
      ],
      "name": "safeTransferFrom",
      "outputs": [],
      "stateMutability": "nonpayable",
      "type": "function"
    },
    {
      "inputs": [
        {
          "internalType": "address",
          "name": "from",
          "type": "address"
        },
        {
          "internalType": "address",
          "name": "to",
          "type": "address"
        },
        {
          "internalType": "uint256",
          "name": "tokenId",
          "type": "uint256"
        },
        {
          "internalType": "bytes",
          "name": "data",
          "type": "bytes"
        }
      ],
      "name": "safeTransferFrom",
      "outputs": [],
      "stateMutability": "nonpayable",
      "type": "function"
    },
    {
      "inputs": [
        {
          "internalType": "address",
          "name": "operator",
          "type": "address"
        },
        {
          "internalType": "bool",
          "name": "approved",
          "type": "bool"
        }
      ],
      "name": "setApprovalForAll",
      "outputs": [],
      "stateMutability": "nonpayable",
      "type": "function"
    },
    {
      "inputs": [
        {
          "internalType": "bytes4",
          "name": "interfaceId",
          "type": "bytes4"
        }
      ],
      "name": "supportsInterface",
      "outputs": [
        {
          "internalType": "bool",
          "name": "",
          "type": "bool"
        }
      ],
      "stateMutability": "view",
      "type": "function"
    },
    {
      "inputs": [],
      "name": "symbol",
      "outputs": [
        {
          "internalType": "string",
          "name": "",
          "type": "string"
        }
      ],
      "stateMutability": "view",
      "type": "function"
    },
    {
      "inputs": [
        {
          "internalType": "uint256",
          "name": "tokenId",
          "type": "uint256"
        }
      ],
      "name": "tokenURI",
      "outputs": [
        {
          "internalType": "string",
          "name": "",
          "type": "string"
        }
      ],
      "stateMutability": "view",
      "type": "function"
    },
    {
      "inputs": [
        {
          "internalType": "address",
          "name": "from",
          "type": "address"
        },
        {
          "internalType": "address",
          "name": "to",
          "type": "address"
        },
        {
          "internalType": "uint256",
          "name": "tokenId",
          "type": "uint256"
        }
      ],
      "name": "transferFrom",
      "outputs": [],
      "stateMutability": "nonpayable",
      "type": "function"
    }
  ],
  "bytecode": "0x60a060405234801561001057600080fd5b5060405161297838038061297883398181016040528101906100329190610165565b6040518060400160405280600c81526020017f4e756d657269632053696e7300000000000000000000000000000000000000008152506040518060400160405280600481526020017f53494e530000000000000000000000000000000000000000000000000000000081525081600090816100ad91906103e2565b5080600190816100bd91906103e2565b5050508073ffffffffffffffffffffffffffffffffffffffff1660808173ffffffffffffffffffffffffffffffffffffffff16815250506000600781905550506104b4565b600080fd5b600073ffffffffffffffffffffffffffffffffffffffff82169050919050565b600061013282610107565b9050919050565b61014281610127565b811461014d57600080fd5b50565b60008151905061015f81610139565b92915050565b60006020828403121561017b5761017a610102565b5b600061018984828501610150565b91505092915050565b600081519050919050565b7f4e487b7100000000000000000000000000000000000000000000000000000000600052604160045260246000fd5b7f4e487b7100000000000000000000000000000000000000000000000000000000600052602260045260246000fd5b6000600282049050600182168061021357607f821691505b602082108103610226576102256101cc565b5b50919050565b60008190508160005260206000209050919050565b60006020601f8301049050919050565b600082821b905092915050565b60006008830261028e7fffffffffffffffffffffffffffffffffffffffffffffffffffffffffffffffff82610251565b6102988683610251565b95508019841693508086168417925050509392505050565b6000819050919050565b6000819050919050565b60006102df6102da6102d5846102b0565b6102ba565b6102b0565b9050919050565b6000819050919050565b6102f9836102c4565b61030d610305826102e6565b84845461025e565b825550505050565b600090565b610322610315565b61032d8184846102f0565b505050565b5b818110156103515761034660008261031a565b600181019050610333565b5050565b601f821115610396576103678161022c565b61037084610241565b8101602085101561037f578190505b61039361038b85610241565b830182610332565b50505b505050565b600082821c905092915050565b60006103b96000198460080261039b565b1980831691505092915050565b60006103d283836103a8565b9150826002028217905092915050565b6103eb82610192565b67ffffffffffffffff8111156104045761040361019d565b5b61040e82546101fb565b610419828285610355565b600060209050601f83116001811461044c576000841561043a578287015190505b61044485826103c6565b8655506104ac565b601f19841661045a8661022c565b60005b828110156104825784890151825560018201915060208501945060208101905061045d565b8683101561049f578489015161049b601f8916826103a8565b8355505b6001600288020188555050505b505050505050565b6080516124a26104d66000396000818161058e015261060c01526124a26000f3fe608060405234801561001057600080fd5b50600436106101005760003560e01c806345576f9411610097578063a22cb46511610066578063a22cb465146102c1578063b88d4fde146102dd578063c87b56dd146102f9578063e985e9c51461032957610100565b806345576f94146102135780636352211e1461024357806370a082311461027357806395d89b41146102a357610100565b8063095ea7b3116100d3578063095ea7b3146101a157806323b872dd146101bd57806332a2c5d0146101d957806342842e0e146101f757610100565b8063010a38f51461010557806301ffc9a71461012357806306fdde0314610153578063081812fc14610171575b600080fd5b61010d610359565b60405161011a91906118ba565b60405180910390f35b61013d60048036038101906101389190611941565b610363565b60405161014a9190611989565b60405180910390f35b61015b6103c4565b6040516101689190611a34565b60405180910390f35b61018b60048036038101906101869190611a82565b610456565b6040516101989190611af0565b60405180910390f35b6101bb60048036038101906101b69190611b37565b610472565b005b6101d760048036038101906101d29190611b77565b610488565b005b6101e161058a565b6040516101ee9190611af0565b60405180910390f35b610211600480360381019061020c9190611b77565b6105b2565b005b61022d60048036038101906102289190611cff565b6105d2565b60405161023a91906118ba565b60405180910390f35b61025d60048036038101906102589190611a82565b61067f565b60405161026a9190611af0565b60405180910390f35b61028d60048036038101906102889190611d48565b610691565b60405161029a91906118ba565b60405180910390f35b6102ab61074b565b6040516102b89190611a34565b60405180910390f35b6102db60048036038101906102d69190611da1565b6107dd565b005b6102f760048036038101906102f29190611e82565b6107f3565b005b610313600480360381019061030e9190611a82565b610818565b6040516103209190611a34565b60405180910390f35b610343600480360381019061033e9190611f05565b61092b565b6040516103509190611989565b60405180910390f35b6000600754905090565b6000634906490660e01b7bffffffffffffffffffffffffffffffffffffffffffffffffffffffff1916827bffffffffffffffffffffffffffffffffffffffffffffffffffffffff191614806103bd57506103bc826109bf565b5b9050919050565b6060600080546103d390611f74565b80601f01602080910402602001604051908101604052809291908181526020018280546103ff90611f74565b801561044c5780601f106104215761010080835404028352916020019161044c565b820191906000526020600020905b81548152906001019060200180831161042f57829003601f168201915b5050505050905090565b600061046182610aa1565b5061046b82610b29565b9050919050565b610484828261047f610b66565b610b6e565b5050565b600073ffffffffffffffffffffffffffffffffffffffff168273ffffffffffffffffffffffffffffffffffffffff16036104fa5760006040517f64a0ae920000000000000000000000000000000000000000000000000000000081526004016104f19190611af0565b60405180910390fd5b600061050e8383610509610b66565b610b80565b90508373ffffffffffffffffffffffffffffffffffffffff168173ffffffffffffffffffffffffffffffffffffffff1614610584578382826040517f64283d7b00000000000000000000000000000000000000000000000000000000815260040161057b93929190611fa5565b60405180910390fd5b50505050565b60007f0000000000000000000000000000000000000000000000000000000000000000905090565b6105cd838383604051806020016040528060008152506107f3565b505050565b6000600760008154809291906105e79061200b565b9190505550600060075490506105fd3382610d9a565b6106078184610e93565b6106327f000000000000000000000000000000000000000000000000000000000000000060016107dd565b3373ffffffffffffffffffffffffffffffffffffffff16817fc6d4c07b5a192236ce0cb885eefc26cc13b0c402d4a25c4c5109f12a5db7b57a60405160405180910390a380915050919050565b600061068a82610aa1565b9050919050565b60008073ffffffffffffffffffffffffffffffffffffffff168273ffffffffffffffffffffffffffffffffffffffff16036107045760006040517f89c62b640000000000000000000000000000000000000000000000000000000081526004016106fb9190611af0565b60405180910390fd5b600360008373ffffffffffffffffffffffffffffffffffffffff1673ffffffffffffffffffffffffffffffffffffffff168152602001908152602001600020549050919050565b60606001805461075a90611f74565b80601f016020809104026020016040519081016040528092919081815260200182805461078690611f74565b80156107d35780601f106107a8576101008083540402835291602001916107d3565b820191906000526020600020905b8154815290600101906020018083116107b657829003601f168201915b5050505050905090565b6107ef6107e8610b66565b8383610eef565b5050565b6107fe848484610488565b610812610809610b66565b8585858561105e565b50505050565b606061082382610aa1565b50600060066000848152602001908152602001600020805461084490611f74565b80601f016020809104026020016040519081016040528092919081815260200182805461087090611f74565b80156108bd5780601f10610892576101008083540402835291602001916108bd565b820191906000526020600020905b8154815290600101906020018083116108a057829003601f168201915b5050505050905060006108ce61120f565b905060008151036108e3578192505050610926565b60008251111561091857808260405160200161090092919061208f565b60405160208183030381529060405292505050610926565b61092184611226565b925050505b919050565b6000600560008473ffffffffffffffffffffffffffffffffffffffff1673ffffffffffffffffffffffffffffffffffffffff16815260200190815260200160002060008373ffffffffffffffffffffffffffffffffffffffff1673ffffffffffffffffffffffffffffffffffffffff16815260200190815260200160002060009054906101000a900460ff16905092915050565b60007f80ac58cd000000000000000000000000000000000000000000000000000000007bffffffffffffffffffffffffffffffffffffffffffffffffffffffff1916827bffffffffffffffffffffffffffffffffffffffffffffffffffffffff19161480610a8a57507f5b5e139f000000000000000000000000000000000000000000000000000000007bffffffffffffffffffffffffffffffffffffffffffffffffffffffff1916827bffffffffffffffffffffffffffffffffffffffffffffffffffffffff1916145b80610a9a5750610a998261128f565b5b9050919050565b600080610aad836112f9565b9050600073ffffffffffffffffffffffffffffffffffffffff168173ffffffffffffffffffffffffffffffffffffffff1603610b2057826040517f7e273289000000000000000000000000000000000000000000000000000000008152600401610b1791906118ba565b60405180910390fd5b80915050919050565b60006004600083815260200190815260200160002060009054906101000a900473ffffffffffffffffffffffffffffffffffffffff169050919050565b600033905090565b610b7b8383836001611336565b505050565b600080610b8c846112f9565b9050600073ffffffffffffffffffffffffffffffffffffffff168373ffffffffffffffffffffffffffffffffffffffff1614610bce57610bcd8184866114fb565b5b600073ffffffffffffffffffffffffffffffffffffffff168173ffffffffffffffffffffffffffffffffffffffff1614610c5f57610c10600085600080611336565b6001600360008373ffffffffffffffffffffffffffffffffffffffff1673ffffffffffffffffffffffffffffffffffffffff168152602001908152602001600020600082825403925050819055505b600073ffffffffffffffffffffffffffffffffffffffff168573ffffffffffffffffffffffffffffffffffffffff1614610ce2576001600360008773ffffffffffffffffffffffffffffffffffffffff1673ffffffffffffffffffffffffffffffffffffffff168152602001908152602001600020600082825401925050819055505b846002600086815260200190815260200160002060006101000a81548173ffffffffffffffffffffffffffffffffffffffff021916908373ffffffffffffffffffffffffffffffffffffffff160217905550838573ffffffffffffffffffffffffffffffffffffffff168273ffffffffffffffffffffffffffffffffffffffff167fddf252ad1be2c89b69c2b068fc378daa952ba7f163c4a11628f55a4df523b3ef60405160405180910390a4809150509392505050565b600073ffffffffffffffffffffffffffffffffffffffff168273ffffffffffffffffffffffffffffffffffffffff1603610e0c5760006040517f64a0ae92000000000000000000000000000000000000000000000000000000008152600401610e039190611af0565b60405180910390fd5b6000610e1a83836000610b80565b9050600073ffffffffffffffffffffffffffffffffffffffff168173ffffffffffffffffffffffffffffffffffffffff1614610e8e5760006040517f73c6ac6e000000000000000000000000000000000000000000000000000000008152600401610e859190611af0565b60405180910390fd5b505050565b80600660008481526020019081526020016000209081610eb3919061225f565b507ff8e1a15aba9398e019f0b49df1a4fde98ee17ae345cb5f6b5e2c27f5033e8ce782604051610ee391906118ba565b60405180910390a15050565b600073ffffffffffffffffffffffffffffffffffffffff168273ffffffffffffffffffffffffffffffffffffffff1603610f6057816040517f5b08ba18000000000000000000000000000000000000000000000000000000008152600401610f579190611af0565b60405180910390fd5b80600560008573ffffffffffffffffffffffffffffffffffffffff1673ffffffffffffffffffffffffffffffffffffffff16815260200190815260200160002060008473ffffffffffffffffffffffffffffffffffffffff1673ffffffffffffffffffffffffffffffffffffffff16815260200190815260200160002060006101000a81548160ff0219169083151502179055508173ffffffffffffffffffffffffffffffffffffffff168373ffffffffffffffffffffffffffffffffffffffff167f17307eab39ab6107e8899845ad3d59bd9653f200f220920489ca2b5937696c31836040516110519190611989565b60405180910390a3505050565b60008373ffffffffffffffffffffffffffffffffffffffff163b1115611208578273ffffffffffffffffffffffffffffffffffffffff1663150b7a02868685856040518563ffffffff1660e01b81526004016110bd9493929190612386565b6020604051808303816000875af19250505080156110f957506040513d601f19601f820116820180604052508101906110f691906123e7565b60015b61117d573d8060008114611129576040519150601f19603f3d011682016040523d82523d6000602084013e61112e565b606091505b50600081510361117557836040517f64a0ae9200000000000000000000000000000000000000000000000000000000815260040161116c9190611af0565b60405180910390fd5b805181602001fd5b63150b7a0260e01b7bffffffffffffffffffffffffffffffffffffffffffffffffffffffff1916817bffffffffffffffffffffffffffffffffffffffffffffffffffffffff19161461120657836040517f64a0ae920000000000000000000000000000000000000000000000000000000081526004016111fd9190611af0565b60405180910390fd5b505b5050505050565b606060405180602001604052806000815250905090565b606061123182610aa1565b50600061123c61120f565b9050600081511161125c5760405180602001604052806000815250611287565b80611266846115bf565b60405160200161127792919061208f565b6040516020818303038152906040525b915050919050565b60007f01ffc9a7000000000000000000000000000000000000000000000000000000007bffffffffffffffffffffffffffffffffffffffffffffffffffffffff1916827bffffffffffffffffffffffffffffffffffffffffffffffffffffffff1916149050919050565b60006002600083815260200190815260200160002060009054906101000a900473ffffffffffffffffffffffffffffffffffffffff169050919050565b808061136f5750600073ffffffffffffffffffffffffffffffffffffffff168273ffffffffffffffffffffffffffffffffffffffff1614155b156114a357600061137f84610aa1565b9050600073ffffffffffffffffffffffffffffffffffffffff168373ffffffffffffffffffffffffffffffffffffffff16141580156113ea57508273ffffffffffffffffffffffffffffffffffffffff168173ffffffffffffffffffffffffffffffffffffffff1614155b80156113fd57506113fb818461092b565b155b1561143f57826040517fa9fbf51f0000000000000000000000000000000000000000000000000000000081526004016114369190611af0565b60405180910390fd5b81156114a157838573ffffffffffffffffffffffffffffffffffffffff168273ffffffffffffffffffffffffffffffffffffffff167f8c5be1e5ebec7d5bd14f71427d1e84f3dd0314c0f7b2291e5b200ac8c7c3b92560405160405180910390a45b505b836004600085815260200190815260200160002060006101000a81548173ffffffffffffffffffffffffffffffffffffffff021916908373ffffffffffffffffffffffffffffffffffffffff16021790555050505050565b61150683838361168d565b6115ba57600073ffffffffffffffffffffffffffffffffffffffff168373ffffffffffffffffffffffffffffffffffffffff160361157b57806040517f7e27328900000000000000000000000000000000000000000000000000000000815260040161157291906118ba565b60405180910390fd5b81816040517f177e802f0000000000000000000000000000000000000000000000000000000081526004016115b1929190612414565b60405180910390fd5b505050565b6060600060016115ce8461174e565b01905060008167ffffffffffffffff8111156115ed576115ec611bd4565b5b6040519080825280601f01601f19166020018201604052801561161f5781602001600182028036833780820191505090505b509050600082602001820190505b600115611682578080600190039150507f3031323334353637383961626364656600000000000000000000000000000000600a86061a8153600a85816116765761167561243d565b5b0494506000850361162d575b819350505050919050565b60008073ffffffffffffffffffffffffffffffffffffffff168373ffffffffffffffffffffffffffffffffffffffff161415801561174557508273ffffffffffffffffffffffffffffffffffffffff168473ffffffffffffffffffffffffffffffffffffffff1614806117065750611705848461092b565b5b8061174457508273ffffffffffffffffffffffffffffffffffffffff1661172c83610b29565b73ffffffffffffffffffffffffffffffffffffffff16145b5b90509392505050565b600080600090507a184f03e93ff9f4daa797ed6e38ed64bf6a1f01000000000000000083106117ac577a184f03e93ff9f4daa797ed6e38ed64bf6a1f01000000000000000083816117a2576117a161243d565b5b0492506040810190505b6d04ee2d6d415b85acef810000000083106117e9576d04ee2d6d415b85acef810000000083816117df576117de61243d565b5b0492506020810190505b662386f26fc10000831061181857662386f26fc10000838161180e5761180d61243d565b5b0492506010810190505b6305f5e1008310611841576305f5e10083816118375761183661243d565b5b0492506008810190505b612710831061186657612710838161185c5761185b61243d565b5b0492506004810190505b60648310611889576064838161187f5761187e61243d565b5b0492506002810190505b600a8310611898576001810190505b80915050919050565b6000819050919050565b6118b4816118a1565b82525050565b60006020820190506118cf60008301846118ab565b92915050565b6000604051905090565b600080fd5b600080fd5b60007fffffffff0000000000000000000000000000000000000000000000000000000082169050919050565b61191e816118e9565b811461192957600080fd5b50565b60008135905061193b81611915565b92915050565b600060208284031215611957576119566118df565b5b60006119658482850161192c565b91505092915050565b60008115159050919050565b6119838161196e565b82525050565b600060208201905061199e600083018461197a565b92915050565b600081519050919050565b600082825260208201905092915050565b60005b838110156119de5780820151818401526020810190506119c3565b60008484015250505050565b6000601f19601f8301169050919050565b6000611a06826119a4565b611a1081856119af565b9350611a208185602086016119c0565b611a29816119ea565b840191505092915050565b60006020820190508181036000830152611a4e81846119fb565b905092915050565b611a5f816118a1565b8114611a6a57600080fd5b50565b600081359050611a7c81611a56565b92915050565b600060208284031215611a9857611a976118df565b5b6000611aa684828501611a6d565b91505092915050565b600073ffffffffffffffffffffffffffffffffffffffff82169050919050565b6000611ada82611aaf565b9050919050565b611aea81611acf565b82525050565b6000602082019050611b056000830184611ae1565b92915050565b611b1481611acf565b8114611b1f57600080fd5b50565b600081359050611b3181611b0b565b92915050565b60008060408385031215611b4e57611b4d6118df565b5b6000611b5c85828601611b22565b9250506020611b6d85828601611a6d565b9150509250929050565b600080600060608486031215611b9057611b8f6118df565b5b6000611b9e86828701611b22565b9350506020611baf86828701611b22565b9250506040611bc086828701611a6d565b9150509250925092565b600080fd5b600080fd5b7f4e487b7100000000000000000000000000000000000000000000000000000000600052604160045260246000fd5b611c0c826119ea565b810181811067ffffffffffffffff82111715611c2b57611c2a611bd4565b5b80604052505050565b6000611c3e6118d5565b9050611c4a8282611c03565b919050565b600067ffffffffffffffff821115611c6a57611c69611bd4565b5b611c73826119ea565b9050602081019050919050565b82818337600083830152505050565b6000611ca2611c9d84611c4f565b611c34565b905082815260208101848484011115611cbe57611cbd611bcf565b5b611cc9848285611c80565b509392505050565b600082601f830112611ce657611ce5611bca565b5b8135611cf6848260208601611c8f565b91505092915050565b600060208284031215611d1557611d146118df565b5b600082013567ffffffffffffffff811115611d3357611d326118e4565b5b611d3f84828501611cd1565b91505092915050565b600060208284031215611d5e57611d5d6118df565b5b6000611d6c84828501611b22565b91505092915050565b611d7e8161196e565b8114611d8957600080fd5b50565b600081359050611d9b81611d75565b92915050565b60008060408385031215611db857611db76118df565b5b6000611dc685828601611b22565b9250506020611dd785828601611d8c565b9150509250929050565b600067ffffffffffffffff821115611dfc57611dfb611bd4565b5b611e05826119ea565b9050602081019050919050565b6000611e25611e2084611de1565b611c34565b905082815260208101848484011115611e4157611e40611bcf565b5b611e4c848285611c80565b509392505050565b600082601f830112611e6957611e68611bca565b5b8135611e79848260208601611e12565b91505092915050565b60008060008060808587031215611e9c57611e9b6118df565b5b6000611eaa87828801611b22565b9450506020611ebb87828801611b22565b9350506040611ecc87828801611a6d565b925050606085013567ffffffffffffffff811115611eed57611eec6118e4565b5b611ef987828801611e54565b91505092959194509250565b60008060408385031215611f1c57611f1b6118df565b5b6000611f2a85828601611b22565b9250506020611f3b85828601611b22565b9150509250929050565b7f4e487b7100000000000000000000000000000000000000000000000000000000600052602260045260246000fd5b60006002820490506001821680611f8c57607f821691505b602082108103611f9f57611f9e611f45565b5b50919050565b6000606082019050611fba6000830186611ae1565b611fc760208301856118ab565b611fd46040830184611ae1565b949350505050565b7f4e487b7100000000000000000000000000000000000000000000000000000000600052601160045260246000fd5b6000612016826118a1565b91507fffffffffffffffffffffffffffffffffffffffffffffffffffffffffffffffff820361204857612047611fdc565b5b600182019050919050565b600081905092915050565b6000612069826119a4565b6120738185612053565b93506120838185602086016119c0565b80840191505092915050565b600061209b828561205e565b91506120a7828461205e565b91508190509392505050565b60008190508160005260206000209050919050565b60006020601f8301049050919050565b600082821b905092915050565b6000600883026121157fffffffffffffffffffffffffffffffffffffffffffffffffffffffffffffffff826120d8565b61211f86836120d8565b95508019841693508086168417925050509392505050565b6000819050919050565b600061215c612157612152846118a1565b612137565b6118a1565b9050919050565b6000819050919050565b61217683612141565b61218a61218282612163565b8484546120e5565b825550505050565b600090565b61219f612192565b6121aa81848461216d565b505050565b5b818110156121ce576121c3600082612197565b6001810190506121b0565b5050565b601f821115612213576121e4816120b3565b6121ed846120c8565b810160208510156121fc578190505b612210612208856120c8565b8301826121af565b50505b505050565b600082821c905092915050565b600061223660001984600802612218565b1980831691505092915050565b600061224f8383612225565b9150826002028217905092915050565b612268826119a4565b67ffffffffffffffff81111561228157612280611bd4565b5b61228b8254611f74565b6122968282856121d2565b600060209050601f8311600181146122c957600084156122b7578287015190505b6122c18582612243565b865550612329565b601f1984166122d7866120b3565b60005b828110156122ff578489015182556001820191506020850194506020810190506122da565b8683101561231c5784890151612318601f891682612225565b8355505b6001600288020188555050505b505050505050565b600081519050919050565b600082825260208201905092915050565b600061235882612331565b612362818561233c565b93506123728185602086016119c0565b61237b816119ea565b840191505092915050565b600060808201905061239b6000830187611ae1565b6123a86020830186611ae1565b6123b560408301856118ab565b81810360608301526123c7818461234d565b905095945050505050565b6000815190506123e181611915565b92915050565b6000602082840312156123fd576123fc6118df565b5b600061240b848285016123d2565b91505092915050565b60006040820190506124296000830185611ae1565b61243660208301846118ab565b9392505050565b7f4e487b7100000000000000000000000000000000000000000000000000000000600052601260045260246000fdfea264697066735822122021efb9ac8de5b7af1cf0168ce1fa3e34afffb5866ce1c917d8456550df07894064736f6c634300081c0033",
  "linkReferences": {},
  "deployedLinkReferences": {}
}